:020000040800F2
:1000000098340020910200084F2F0008DD2D0008D1
:100010004B2F00083117000845350008000000008C
:10002000000000000000000000000000F9010008CE
:10003000DD180008000000003D02000851320008F1
:10004000AB020008AB020008AB020008AB020008DC
:10005000AB020008AB020008AB020008AB020008CC
:10006000AB020008AB020008AB020008AB020008BC
:10007000AB020008AB020008AB020008AB020008AC
:10008000AB020008AB020008AB020008AB0200089C
:10009000AB020008AB020008AB020008AB0200088C
:1000A000AB020008AB020008AB020008AB0200087C
:1000B000AB020008AB020008AB020008AB0200086C
:1000C000AB020008AB020008AB020008AB0200085C
:1000D000AB02000825350008AB02000835350008E2
:1000E000AB020008AB020008AB020008AB0200083C
:1000F000AB020008AB020008AB020008AB0200082C
:10010000AB020008AB020008AB020008AB0200081B
:10011000AB020008AB020008AB020008AB0200080B
:10012000AB020008AB020008AB020008AB020008FB
:1001300000F002F800F050F80AA090E8000C8244A9
:100140008344AAF10107DA4501D100F045F8AFF286
:10015000090EBAE80F0013F0010F18BFFB1A43F0A5
:10016000010318471060000030600000103A24BFFF
:1001700078C878C1FAD8520724BF30C830C144BF0C
:1001800004680C607047000000230024002500264E
:10019000103A28BF78C1FBD8520728BF30C148BFEA
:1001A0000B607047662905F07087642900F0EE80C7
:1001B000782900F02781732900F0488500207047D6
:1001C0001FB500F07BFD04000020002105F09CFC21
:1001D000E0601FBD10B510BD00F074FE1146FFF7C2
:1001E000EFFF03F02FFB00F092FE03B4FFF7F2FFE6
:1001F00003BC03F0E0F90000224B19680868B0E87E
:10020000F00F80F30988BFF36F8F4FF0000080F389
:1002100011884EF00D0E704700000000064800687F
:10022000006880F3088862B661B6BFF34F8FBFF3F2
:100230006F8F00DF00BF00BF08ED00E0EFF3098023
:10024000BFF36F8F0F4B1A6820E9F00F106008B5ED
:100250004FF0500080F31188BFF34F8FBFF36F8FC3
:1002600004F0A6FD4FF0000080F31188BDE80840BF
:1002700019680868B0E8F00F80F30988BFF36F8F42
:10028000704700BF58000020EFF305807047000062
:100290000948804709480047FEE7FEE7FEE7FEE71A
:1002A000FEE7FEE7FEE7FEE7FEE7FEE70448054956
:1002B000054A064B7047000065320008310100080E
:1002C000982E00209834002098300020983000208C
:1002D000704700000FB4044910B503AA029800F05B
:1002E000B9FC10BC5DF814FB3000002070B504466A
:1002F00085690068C10601D5302600E02026C007C8
:1003000007D070BDD4E9012130469047206A401CD7
:1003100020626D1EF6D570BD70B504468569007803
:10032000C00707D170BDD4E9012120209047206A81
:10033000401C20626D1EF6D570BD70B50C4605469A
:10034000012A05D02878800600D5EA69002302E05A
:10035000012305E05B1C934202D2E05C0028F9D146
:10036000A869E618C01AA861286A184428622846B5
:10037000FFF7BCFF04E0D5E9012114F8010B904719
:10038000B442F8D32846FFF7C7FF70BD2DE9F0410E
:100390000646002410687529314616A510D0AFF323
:1003A0000080002802DA404213A507E031688A077E
:1003B00001D512A502E0490704D511A5012401E0E9
:1003C000AFF3008000210A2206F1240709E0B0FB08
:1003D000F2FCB0FBF2F302FB1C00303078541846FC
:1003E000491C0028F3D123462A463046BDE8F04197
:1003F00000F099B9000000002D0000002B00000063
:100400002000000070B504460D4621461068AFF389
:1004100000802188090502D50F4A7A4402E00E4A7D
:100420007A440E32002104F1240305E000F00F06A7
:100430000009965D5E54491C0028F7D120780023FE
:10044000000704D5702D02D009B1022311322046D5
:10045000BDE8704000F067B9885C00002DE9F05FEE
:10046000894604464FF0000ADFF824B1FB44C0F887
:1004700020A02046E168884700287DD0252806D0A6
:10048000D4E901219047206A401C2062F1E7002551
:100490005F462046E16888472028064607DB312E64
:1004A00005D2B81910F8200C08B10543F1E7A807E8
:1004B00001D525F00405C4F81CA00027C4F818A035
:1004C0002A2E09D0304603F06FF838B304EB8708C2
:1004D000303EC8F8186019E059F8041B204604EBB8
:1004E00087029161E1688847012F064618D1E069CB
:1004F000002820DA25F020051DE0D8F8180000EBD0
:10050000800006EB40003038C8F818002046E1684B
:100510008847064603F048F80028EED1012F0AD09C
:100520002E2E08D12046E16888477F1C0646022F00
:1005300045F02005C4DBA069002803DA404245F0FD
:100540000105A061E80701D025F01005A6B1A6F1CC
:100550004100192802D8203645F400654A46314644
:10056000204625604D46FFF71DFE60B1012807D0EB
:10057000ED1D25F0070000E007E000F1080978E72D
:1005800005F1040975E730467AE7206ABDE8F09F77
:100590005E5C000010B5431C02E010F8011B71B155
:1005A0008107FAD14FF0013202C88C1A8C4314EA49
:1005B000C211F9D0C01A0A0603D0C01E10BDC01A5D
:1005C00010BD0A0401D0801E10BD0902FCD0401EDF
:1005D00010BD032A40F2308010F0030C00F01580AB
:1005E00011F8013BBCF1020F624498BF11F801CB36
:1005F00000F8013B38BF11F8013BA2F1040298BF9B
:1006000000F801CB38BF00F8013B11F0030300F004
:100610002580083AC0F0088051F8043B083A51F8A8
:1006200004CBA0E80810F5E7121D5CBF51F8043BAD
:1006300040F8043BAFF30080D20724BF11F8013B20
:1006400011F801CB48BF11F8012B24BF00F8013B82
:1006500000F801CB48BF00F8012B704710B5203AD5
:10066000C0F00B80B1E81850203AA0E81850B1E86B
:100670001850A0E81850BFF4F5AF5FEA027C24BF21
:10068000B1E81850A0E8185044BF18C918C0BDE818
:1006900010405FEA827C24BF51F8043B40F8043BE1
:1006A00008BF7047D20728BF31F8023B48BF11F896
:1006B000012B28BF20F8023B48BF00F8012B7047F0
:1006C00002F0FF0343EA032242EA024200F0D6BAF4
:1006D0004FF0000200B5134694469646203922BFDB
:1006E000A0E80C50A0E80C50B1F12001BFF4F7AF26
:1006F000090728BFA0E80C5048BF0CC05DF804EB08
:10070000890028BF40F8042B08BF704748BF20F875
:10071000022B11F0804F18BF00F8012B7047704773
:100720007047704770472DE9F0470D46994692464D
:10073000044600F124080168880604D5E06921F028
:100740001001216000E00120A84201DD471B00E00C
:100750000027A1697A1902EB0900081AA061207824
:10076000C00602D42046FFF7C1FD002608E0D4E908
:1007700001211AF806009047206A401C761C20626E
:100780004E45F4DB2078C0060AD52046FFF7AEFDC3
:1007900006E0D4E9012130209047206A401C206205
:1007A000381EA7F10107F4DC07E0D4E9012118F8AD
:1007B00005009047206A401C2062281EA5F1010513
:1007C000F3DC2046FFF7A8FD2078000602D50220C2
:1007D000BDE8F0870120FBE770472DE9FF4F0C468D
:1007E0001E464FF0FF378BB0D2E90001DDF8608084
:1007F0000A908A46C1F30A5505B93D4600210846CC
:100800004FF00000BAF1000F00F4400005DA00EBF1
:1008100080004FF4400101EA50004FEA9059B9F1CD
:10082000010F00DDB9460A9850EA4A000ED044F69E
:100830001050A5F2FF3545432F14B8F1000F1ED01C
:100840007542291E1EDDC9F100021CE0B8F1010F3E
:100850004FF0000001D0302103E0F24305E02154C5
:10086000401CB042FBDB30460022002121540B9992
:10087000C1F80880C1E900200FB0BDE8F08FBD1BB2
:100880006D1CDEE74A4600DA694206A800F0A0FACD
:1008900006AB93E8070003AB83E8070050460A99CC
:1008A00000F07EFB8DE80700A0F500501F38009097
:1008B0000398002D0ADD42F21F014A460844002336
:1008C00003A90390684600F0E7FD09E0A0F5005099
:1008D0004A461F38002303A90390684600F0F1FD43
:1008E0008DE807000004000C03D04FF0FF304108F2
:1008F00000E01046B8F1000F03D000220092154628
:100900001EE0751E05D400F0DDF9303262556D1E13
:10091000F9D5B3460122084302D000227F1C04E02F
:100920002078302801D100227F1E002A099784D028
:100930001DE0112D07DA00F0C5F9303262556D1C4B
:1009400050EA0102F5D1084302D00098C8B10EE088
:100950000021681E05E0235C625C63542254401E43
:10096000491C8142F7DBAB46A81B401E09900020C2
:1009700004F80B000B98099AC0F80880C0E9002B16
:100980007AE711264FF0000857E72DE9F04F884627
:100990000446D21D22F0070191B0D1E90001CDE952
:1009A0000A0102F0D1FD02460B98C00F01D02D20A4
:1009B00007E02068810701D52B2002E0202101EA11
:1009C000C000032A099001D0072A05DB03464146EF
:1009D000204600F0BDF90BE12078800601D5E069E2
:1009E00000E00620B8F1650F814606D0B8F1660F29
:1009F00018D0B8F1670F70D131E00020B9F1110FB4
:100A0000009001DB112301E009F101030AAA01A909
:100A10000CA8FFF7E2FEDDE90C70002609F10105E4
:100A2000834647E001204B4600904FF000470AAA5A
:100A300001A90CA8FFF7D1FEDDE90DB00C995D46C8
:100A4000002610B909F101000D18B9EB050003D417
:100A5000C0F1FF3609F10105A5EB09002BE0B9F162
:100A6000010F01DA4FF001090020B9F1110F0090D8
:100A7000484601DD112300E003460AAA01A90CA89B
:100A8000FFF7ABFEDDE90C704D460026834620786B
:100A900000070AD4AB4500DA5D4601A8012D04DD4C
:100AA000411911F8011C302907D04F4502DA17F11E
:100AB000040F04DA012082460FE06D1EEEE7002FDE
:100AC00002DCED1B3E4403E0781CA84200DD7D1CE7
:100AD000B81B00F1010A4FF000472078000703D44B
:100AE000AA4501DB4FF0FF3A0021B7F1004F0DF1AD
:100AF00043088DF8431024D002202B23002F01DA65
:100B00007F422D230A21021EA0F1010000DC5FB10B
:100B100097FBF1FC97FBF1F201FB1C7C17460CF1F3
:100B2000300C08F801CDEEE7A8F101000370218830
:100B3000090501D5452100E06521A0F1010800F873
:100B4000011C09980FA9A1EB0807FF1D00B10120A6
:100B5000411901EBEA70A1693844081A401EA061EE
:100B60002078C00602D42046FFF7C0FB099828B1C0
:100B7000D4E901219047206A401C20622078C006F9
:100B800022D52046FFF7B2FB1EE0002E04DBB34562
:100B900002DD01A8805D00E03020D4E9012190470A
:100BA000206A401C2062761CAAF101005FEA000A5C
:100BB0000AD100F083F8C0680168405CD4E90121E3
:100BC0009047206A401C2062281EA5F10105DCDC4C
:100BD00007E0D4E9012118F8010B9047206A401C76
:100BE0002062381EA7F10107F3DC2046FFF794FBD3
:100BF000032011B041E6000001694A1C0261087837
:100C0000704700B58FB0CDE901310021059105494C
:100C10007944CDE9031011466846FFF71FFC0FB079
:100C200000BD0000E5FFFFFF10B5436913B1AFF34E
:100C3000008001E0FFF781FB012010BD127800F178
:100C400024010A7000224A700122EDE711684FF07A
:100C5000FF32E9E7074B70B50D467B44FFF7D1FF44
:100C60000446284600F026F910B14FF0FF3070BD61
:100C7000204670BD072A00004FF000020429C0F092
:100C8000128010F0030C3FF425ADCCF1040CBCF144
:100C9000020F18BF00F8012BA8BF20F8022BA1EB10
:100CA0000C01FFF717BD5FEAC17C24BF00F8012BE0
:100CB00000F8012B48BF00F8012B7047004870472F
:100CC000542E002030B5B0F10A024FEA900E71F1B7
:100CD00000034EEA817EB0EB0E0061EB91014FEA1A
:100CE000101E4EEA017E10EB0E0041EB11114FEA8F
:100CF000102E4EEA016E10EB0E0041EB11214FEA6F
:100D0000104E4EEA014E10EB0E0041EB114140181F
:100D100041F100014FEAD00040EA41704FEAD101B1
:100D200010EB80054FEA810444EA907444EB01041F
:100D30006D1944EB0404521BA3414FF0000348BF5C
:100D40000A3200D530BD401C41F1000130BD000029
:100D50002DE9F0411F46044603260168072A01F4E5
:100D6000006004DB08B116A505E016A503E008B194
:100D700015A500E015A521F010002060A069C01E97
:100D8000A0610FB1401EA0612046FFF7AFFA4FB13E
:100D9000D4E9012138469047206A401C2062C01CDB
:100DA000206206E0206AFAE7D4E9012115F8010B78
:100DB0009047761EF8D22046FFF7AEFABDE8F081E4
:100DC0004E414E006E616E00494E4600696E6600EF
:100DD0002DE9F047814616468AB0354878440DC85B
:100DE0008DE80D0032487844801C03AC0DC884E8BF
:100DF0000D0041F69B300844372190FBF1F290FB47
:100E0000F1F5A5F1800501FB12041B3C02D56442FB
:100E1000012000E00020DFF898A080460027FA4477
:100E2000AAF1BE0A0EE0E0070AD03246684607EB98
:100E3000470101230AEB810100F043FB8DE8070025
:100E400064107F1C002CEED1194F7F44AE3F19E097
:100E5000E80715D007EB04100DF1180A90E80E0012
:100E60008AE80E00C068F04201D198190890324615
:100E7000012306A903A800F024FB03AB83E80700C5
:100E80006D10641C002DE3D14FF00103324669461A
:100E9000B8F1000F03A802D000F0FEFA01E000F064
:100EA00010FBC9E90001C9F808200AB0BDE8F087C5
:100EB0007C530000007B00F08000704700487047C2
:100EC000342E00207546FFF7F9FFAE46050069464F
:100ED000534620F00700854618B020B5FFF7E6F925
:100EE000BDE820404FF000064FF000074FF000082B
:100EF0004FF0000B21F00701AC46ACE8C009ACE8AC
:100F0000C009ACE8C009ACE8C0098D46704710B50F
:100F10000446AFF300802046BDE81040FFF765B9F6
:100F20004FF0013C50F8042B51F8043B9A4221D178
:100F3000A2EB0C03934313EACC1317D150F8042B04
:100F400051F8043B9A4215D1A2EB0C03934313EAE8
:100F5000CC130BD150F8042B51F8043B9A4209D121
:100F6000A2EB0C03934313EACC13DBD04FF0000049
:100F7000704700BFD01A01BAB1FA81F101F018012F
:100F800022FA01F0CB40C1F12001DBB2C0B2C01A9D
:100F90002CFA01F3D11A914311EAC311E6D170473B
:100FA0005FEA400C08BF91F0000F4FEA8C234FEA34
:100FB000C12243EA51514FEA1C5018BF00F5F040DE
:100FC0004FEA300018BF41F000415FEA6C5C00F06E
:100FD0002980BCF1FF3F08BF40F080407047130CF0
:100FE00006BF12044FF0100C4FF0000C130E04BF9C
:100FF00012020CF1080C130F04BF12010CF1040CC7
:10100000930F04BF92000CF1020CD30F04BF5200E7
:101010000CF1010C11464FF00002A0F11F00A0EBF3
:101020000C00704711F0004F08BF704731F00041CD
:101030003FF4D5AF0B0C06BF09044FF0100C4FF076
:10104000000C0B0E04BF09020CF1080C0B0F04BFBF
:1010500009010CF1040C8B0F04BF89000CF1020C88
:10106000CB0F04BF49000CF1010CCCF12003A0EB25
:101070000C0022FA03F302FA0CF241EA030100F138
:101080000100704720F07F4C80EA030023F07F4787
:10109000ACEB070303F57C5300F0004003F1FF03C2
:1010A0002DE980494FEA154B09B44FEA144325EA6C
:1010B0000B4E24EA03480FF2042606EB13274908D7
:1010C0003E785FEA320203FB0667C7F5000707FBBD
:1010D00006F64FEA54374FEAD64606F1020607FBFA
:1010E000066CCCF1005C4FEA1C472CEA074C07FB6E
:1010F00006F40CFB06F504EB15464FEA961634BFD2
:1011000000204FF000404FEAD13706FB07FC4FEAC2
:101110001C4C0CFB0BF7D21B03FB0CF761EB07011C
:101120000CFB0EF7B0EB074072EB17420CFB08F715
:1011300034BFA2EB0742B2EB074261EB17414FEA23
:101140000C444FEA910706FB07FC4FEA1C4C0CFBD2
:101150000BF7B0EBC74072EB573203FB0CF734BF11
:10116000A2EBC742B2EBC74261EB57310CFB0EF763
:10117000B0EBC70072EB57720CFB08F734BFA2EB61
:10118000C702B2EBC70261EB5771039F4FEA81615F
:1011900041EA921104EBCC044FEAD1374FEA826264
:1011A00006FB07FC42EA90124FEA80604FEA1C4CB3
:1011B0000CFB0BF7D21B03FB0CF761EB07010CFBDD
:1011C0000EF7B0EB074072EB17420CFB08F734BF89
:1011D000A2EB0742B2EB074261EB17414FEA8C5595
:1011E0004FEA910704EB9C2406FB07FC4FEA1C4CDA
:1011F0000CFB0BF7B0EBC74072EB573203FB0CF75D
:1012000034BFA2EBC742B2EBC74261EB57310CFBD4
:101210000EF7B0EBC70072EB57720CFB08F734BF48
:10122000A2EBC702B2EBC70261EB577115EB4C257D
:101230004FEA816141EA92114FEA82624FEAD13767
:1012400042EA901206FB07FC44F100044FEA80607A
:101250004FEA1C4C0CFB0BF7D21B03FB0CF761EBAA
:1012600007010CFB0EF7B0EB074072EB17420CFBCB
:1012700008F734BFA2EB0742B2EB074261EB17411C
:1012800015EB1C154FEA813141EA92414FEA823257
:1012900042EA90424FEA80304FEA0C7644F1000473
:1012A00048EA03434EEA0B484FF0000EB2EB080C3D
:1012B00071EB030724BF624639464EEB0E0E4FF02A
:1012C000000B0018524149414BEB0B0BB2EB080CE1
:1012D00071EB03077BF1000B24BF624639464EEBEE
:1012E0000E0E4FF0000B0018524149414BEB0B0B17
:1012F000B2EB080C71EB03077BF1000B24BF6246D5
:1013000039464EEB0E0E51EA020718BF46F00106B1
:1013100016EB0E7655F1000254F1000103D5BDE83D
:101320008901BDE80088BDE88901BDE80048B6191B
:10133000524141EB0101A3F10103704780807F7EA0
:101340007D7C7B7A7978777676757473727171703B
:101350006F6E6E6D6C6C6B6A6A69686867666665ED
:101360006464636362616160605F5F5E5E5D5D5C7B
:101370005C5B5B5A5A5959585857575656555555EC
:101380005454535352525251515050504F4F4F4E4C
:101390004E4D4D4D4C4C4C4B4B4B4A4A4A4949499A
:1013A00048484847474747464646454545444444DC
:1013B000444343434342424242414141002B9C4605
:1013C00030D477002BD01CB54FEA370703B44FF069
:1013D00010004FF01001BAF1000F06D0BCF1000F61
:1013E000DCBF40F0080040F008014FF000000FBCE7
:1013F000BDE810400BF1010BBBF1010F08BF5FEA24
:10140000170722BF12F1010211F101014FF0004153
:1014100043F1000300F0004043EA00007047F9D3B5
:101420005708D0E746EA064613F1400F4FEA164642
:101430001FDD13F1200FDFBF16430A4600212033C2
:101440005B42BED0C3F1200746EA064602FA07F720
:101450004FEA164646EA0706C3F1200722FA03F2CE
:1014600001FA07F721FA03F14FF0000342EA0702FD
:10147000A7E746EA020646EA06464FEA164646EA65
:101480000106BCBF46EA0646360C4FF000034FF09B
:1014900000024FF0000194E72DE9804C9A469346F4
:1014A00070B491E8380007C831EA400C48BF34EA0C
:1014B000430C03D5FFF7E6FDFFF780FFF0BCBDE866
:1014C000008C2DE9804C9A46934670B491E8380020
:1014D00007C810F0804F08BF13F0804F03D100F011
:1014E00005F8FFF76BFFF0BCBDE8008C20F07F47EC
:1014F00080EA030023F07F4C07EB0C03A3F57C5339
:1015000000F00040A3F1FE0392F0000F00F0B38062
:1015100095F0000F00F077802DE901494FEA114066
:101520004FEA144621EA004800FB06FC24EA06477D
:1015300008FB06F607FB08F800FB07F718EB064860
:101540004CEB164C4FEA124B18EB07484FEA154686
:101550004CEB174022EA0B4E0BFB06FC25EA064734
:101560000EFB06F607FB0EFE0BFB07F71EEB064E07
:101570004CEB164C4FF000061EEB074E4CEB174B96
:1015800018EB0B0840F1000018EB0E0B58EB0008AD
:1015900040F100008F1A4FF000013CBFC943661BA9
:1015A00014BFB5EB040C00213CBFC943F61B4FEA46
:1015B00017444EEA8E0E27EA04454FEA1C4704FB07
:1015C00007622CEA074C05FB07F70CFB05F604FB4A
:1015D0000CFC16EB074642EB174216EB0C4642EBAF
:1015E0001C421BEB060658EB0202414146EA9E06EE
:1015F00001D5BDE80189B619524141EB0101A3F1C2
:101600000103BDE801894FEA14454FEA114724EA76
:10161000054621EA074C05FB07F406FB07F70CFB20
:1016200006F105FB0CFC11EB074144EB17444FEAB4
:10163000124711EB0C4144EB1C4422EA074C05FB1A
:1016400007F206FB07F70CFB06F605FB0CFC16EB96
:10165000074642EB174216EB0C4642EB1C456A1854
:1016600054F1000148BF7047B619524141EB0101E6
:10167000A3F10103704795F0000F37D04FEA1142F4
:101680004FEA144721EA024624EA074C02FB07F11D
:1016900006FB07F70CFB06F402FB0CFC14EB0744FB
:1016A00041EB17414FEA154714EB0C4441EB1C4149
:1016B00025EA074C02FB07F506FB07F70CFB06F6CD
:1016C00002FB0CFC16EB074645EB174516EB0C46E8
:1016D00045EB1C42121951F1000148BF7047B61981
:1016E000524141EB0101A3F1010370474FEA144558
:1016F0004FEA114724EA054621EA074C05FB07F1AA
:1017000006FB07F70CFB06F24FF0000605FB0CFC8E
:1017100012EB074241EB174112EB0C4251EB1C411B
:1017200048BF7047921841EB0101A3F101037047D4
:1017300000BFFEE7F8B503460C46FF2102268DF8F0
:1017400000308DF80140002014E01DF80050694081
:1017500000250BE001F0800727B1312787EA410718
:10176000F9B201E04F06390E6F1CFDB2082DF1DB16
:10177000451CE8B20228E8DB914201D10120F8BD06
:101780000020FCE770B50446204604F029FB06461D
:10179000034904F063FA0546024904F035FB70BDC5
:1017A00000FF7F470000C8422DE9F0410446204673
:1017B00004F016FB0746064904F050FA06460549B0
:1017C00004F022FB0546044904F0E6F9BDE8F08187
:1017D00000FF7F4700002F43000034C27FB5012582
:1017E00000240122DDE9000101F09EFC022001F04D
:1017F000F7FA00BF07E0601C84B241F288308442EF
:1018000001DD002505E0DDE9020100F095F8012881
:10181000F1D000BF0022DDE9000101F085FC0220CB
:1018200001F0DEFA284604B070BD05E0002001F0AA
:1018300081FB0A2003F0E0F8F8E700001FB5002460
:101840000020039002908146824630E002A903A85E
:1018500000F07AF8C8B1BDF80C00FFF7A5FF81468B
:10186000BDF80800FFF78EFF8246504604F068F985
:1018700005460E46484604F063F907463A460B46CD
:101880000BA0CDE90056FEF725FD601C84B21E209A
:1018900094FBF0F100FB114030B900BF20210E484D
:1018A00000F058FB00BF00240A2003F0A5F8CDE7A4
:1018B000E6B8A9E5BAA63A20252E326620C2B04382
:1018C0002C20E6B9BFE5BAA63A20252E326620259F
:1018D0002552480D0A000000000C0140704700002E
:1018E00010B507E000220121064800F03DFB0A2068
:1018F00001F08AFE0121034800F024FB0128F1D009
:1019000010BD00000008014010B50121064800F09C
:1019100019FB38B901221146034800F025FB0A20C3
:1019200003F06AF810BD000000080140014800788B
:10193000704700002C00002013B5019A91B2009866
:1019400000F000FB1CBD00002DE9F04186B004460C
:101950000D46002600200490059034480CC83448F9
:1019600003C801F068FA31480CC8314803C801F0D7
:10197000ACFB0646002E57D02C480CC82C4803C898
:1019800001F07CFA41F2707001F02AFA27480CC885
:10199000274803C801F04FFA04A8009023480CC858
:1019A000234803C801F0E8FA0646002E3CD09DF813
:1019B00015009DF814109DF81320CDE90021029028
:1019C0009DF812309DF811209DF8101019A0FEF717
:1019D00081FC9DF812209DF811109DF81000FFF772
:1019E000A9FE07469DF815209DF814109DF81300D8
:1019F000FFF7A0FE8046B7B1B8F1010F13D134B1A3
:101A00009DF811009DF8101040EA0120208035B1AA
:101A10009DF814009DF8131040EA01202880012051
:101A200006B0BDE8F08100BF0020F9E750000020BB
:101A3000480000205261773A202530325820253066
:101A40003258202530325820253032582025303267
:101A50005820253032580D0A0000000070B50446A9
:101A6000002594F82100022803D00420A06301255A
:101A7000C1E02068006820F00E002168086020683E
:101A8000006820F00100216808605C4920688842F5
:101A900052D95A4978392068884201D1012047E05B
:101AA000564964392068884201D1102040E05349EA
:101AB00050392068884201D1801539E04F493C39BE
:101AC0002068884201D1801432E04C4928392068CE
:101AD000884202D14FF480302AE048491439206806
:101AE000884202D14FF4801022E0444920688842A5
:101AF00001D140041CE042492068884201D1012004
:101B000016E03F4914312068884201D110200FE0CF
:101B10003B4928312068884201D1801508E03849C6
:101B20003C312068884201D1801401E04FF48030BC
:101B30003349091F086051E03049783920688842EC
:101B400001D1012047E02D4964392068884201D144
:101B5000102040E0294950392068884201D1801581
:101B600039E026493C392068884201D1801432E0AE
:101B7000224928392068884202D14FF480302AE077
:101B80001E4914392068884202D14FF4801022E0A7
:101B90001A492068884201D140041CE01849206895
:101BA000884201D1012016E015491431206888428D
:101BB00001D110200FE0124928312068884201D15C
:101BC000801508E00E493C312068884201D180141C
:101BD00001E04FF48030094980394860012084F8E1
:101BE000210000BF002084F8200000BF606B10B10E
:101BF0002046616B8847284670BD00008000024087
:101C0000080402402DE9F847024600239C467BE188
:101C10004FF0010808FA03F4D1F8008008EA040044
:101C2000A0427DD1DFF8F4A2D1F80480A8EB0A0924
:101C3000D0453AD014DCB8F1030F50D009DCB8F12C
:101C4000000F31D0B8F1010F1CD0B8F1020F49D10B
:101C500020E0B8F1110F18D0B8F1120F42D11EE0F8
:101C6000B9F5881F25D006DCB9F5803F20D0B9F53D
:101C7000801F37D11AE0B9F5001F18D0B9F5041F3D
:101C800030D117E0D1F80CC02DE0D1F80C8008F16C
:101C9000040C28E0D1F80C8008F1080C23E0D1F8FE
:101CA0000C8008F10C0C1EE000BF00BF00BF00BF9D
:101CB00000BF00BFD1F80880B8F1000F02D14FF08B
:101CC000040C0BE0D1F80880B8F1010F03D14FF0FC
:101CD000080C146102E04FF0080C546103E04FF06F
:101CE000000C00E000BF00BFFF2801D8904601E0D3
:101CF00002F104084646FF2802D84FEA830803E0B1
:101D0000A3F108084FEA88084746D6F800804FF04C
:101D10000F0909FA07F928EA09080CFA07F900E09F
:101D20007AE048EA0908C6F80080D1F8048008F093
:101D30008058B8F1805F6FD100BFDFF8E481D8F838
:101D4000188048F00108DFF8D891C9F81880C84613
:101D5000D8F8188008F00108CDF8008000BF00BF57
:101D60004FEAB9384FEA930958F829504FEA837877
:101D70004FEA18794FF00F0808FA09F825EA080524
:101D8000DFF8A081424502D14FF0000824E0DFF8DF
:101D90009881424502D14FF001081DE0DFF88C81A7
:101DA000424502D14FF0020816E0DFF88481424537
:101DB00002D14FF003080FE0DFF87881424502D1ED
:101DC0004FF0040808E0DFF87081424502D14FF07F
:101DD000050801E04FF006084FEA83794FEA1979C8
:101DE00008FA09F848EA0505DFF850814FEA930937
:101DF00048F82950D1F8048008F48038B8F5803FBD
:101E00000BD1DFF83C81D8F8008048EA0008DFF801
:101E10003091C9F800800AE075E0DFF82481D8F835
:101E2000008028EA0008DFF81891C9F80080D1F88E
:101E3000048008F40038B8F5003F0ED1DFF80081C7
:101E400008F10408D8F8008048EA0008DFF8F090AC
:101E500009F10409C9F800800DE0DFF8E48008F119
:101E60000408D8F8008028EA0008DFF8D49009F1C7
:101E70000409C9F80080D1F8048008F48018B8F586
:101E8000801F0ED1DFF8B88008F10808D8F800806C
:101E900048EA0008DFF8A89009F10809C9F80080AD
:101EA0000DE0DFF89C8008F10808D8F8008028EAE7
:101EB0000008DFF88C9009F10809C9F80080D1F812
:101EC000048008F40018B8F5001F0ED1DFF8708008
:101ED00008F10C08D8F8008048EA0008DFF86090A4
:101EE00009F10C09C9F800800DE0DFF8548008F111
:101EF0000C08D8F8008028EA0008DFF8449009F1BF
:101F00000C09C9F800805B1CD1F8008028FA03F89E
:101F1000B8F1000F7FF47CAEBDE8F8870000111027
:101F20000010024000080140000C01400010014078
:101F30000014014000180140001C0140080001404D
:101F400000040140024693680B400BB1012000E001
:101F50000020704710B5C26821EA020302EA0104BA
:101F600043EA0443036110BD0AB1016101E00B04BF
:101F70000361704701480068704700003C00002082
:101F8000034800680349097808440149086070471C
:101F90003C0000204400002010B50848006840F0D4
:101FA000100006490860052000F080F80F2000F0BE
:101FB00007F800F02BF8002010BD000000200240C0
:101FC00070B504460E4800784FF47A71B1FBF0F01A
:101FD0000C490968B1FBF0F5284600F0F7FB08B1A1
:101FE000012070BD102C07D200222146501E00F0A7
:101FF0001EF80548046001E00120F2E70020F0E748
:1020000044000020240000204000002070470146CA
:102010000846002809DB00F01F0301229A4043090B
:102020009B0003F1E023C3F8002100BF70472DE9B6
:10203000F05F80460D461646002701F099FA0746E4
:1020400039462A46334601F00700C0F1070ABAF1C3
:10205000040F02D94FF0040A01E0C0F1070AD1468B
:1020600000F1040ABAF1070F02D24FF0000A01E0B2
:10207000A0F1030AD4464FF0010A0AFA09FAAAF1BC
:10208000010A0AEA020A0AFA0CFA4FF0010B0BFAEB
:102090000CFBABF1010B0BEA030B4AEA0B042146E4
:1020A000404601F06DFABDE8F09F000000BF00F06F
:1020B0000702064B19684FF6FF031940044B0B4308
:1020C00043EA0221014B196000BF70470CED00E0AC
:1020D0000000FA0570B504460D460CB9012070BD2C
:1020E0005A48006800F00700A8420ED2574800681E
:1020F00020F007002843554908600846006800F0B2
:102100000700A84201D00120E9E7207800F0020092
:1021100002281DD1207800F00400042805D14C4885
:10212000406840F4E0604A494860207800F00800C8
:10213000082805D14648406840F46050444948604A
:102140004348406820F0F000A168084340494860D7
:10215000207800F0010078B36068012806D13C487F
:10216000006800F4003090B90120B8E760680228E8
:1021700006D13748006800F0007040B90120AEE792
:102180003348006800F0020008B90120A7E7304892
:10219000406820F00300616808432D494860FFF75C
:1021A000E9FE064609E0FFF7E5FE801B41F28831B3
:1021B000884202D9032092E707E02548406800F0F2
:1021C0000C006168B0EB810FEDD12048006800F091
:1021D0000700A8420ED91D48006820F007002843D8
:1021E0001A4908600846006800F00700A84201D0BC
:1021F000012074E7207800F00400042807D1144877
:10220000406820F4E060E1680843114948602078A4
:1022100000F00800082808D10D48406820F46050FC
:10222000216940EAC1000A49486000F03FF80849C6
:102230004968C1F30311074A515CC8400649086068
:1022400006480068FFF7BCFE002048E70020024077
:10225000001002408E600008240000204000002092
:1022600001480068704700002400002000B5FFF717
:10227000F7FF04494968C1F30221034A515CC84091
:1022800000BD0000001002409E60000800B5FFF78E
:10229000E7FF04494968C1F3C221034A515CC840C1
:1022A00000BD0000001002409E600008F0B585B03F
:1022B0000FF26C0C9CE8E01001A8A0E8E0101CA54F
:1022C0002D68009500210022002300240020194DD4
:1022D000696801F00C05F5B1042D02D0082D19D163
:1022E00001E0154819E001ADC1F38346AC5D01F48E
:1022F000803555B10F4D6D68C5F340451DF805207B
:102300000D4D6543B5FBF2F302E00C4D04FB05F304
:10231000184602E000BF084800BF00BF05B0F0BD8E
:1023200002030405060708090A0B0C0D0E0F101016
:10233000010200000010024000127A0000093D0076
:10234000F8B504460CB90120F8BD207800F0010072
:10235000002878D0F848406800F00C0004280CD021
:10236000F548406800F00C00082811D1F248406898
:1023700000F48030B0F5803F0AD1EF48006800F4E7
:10238000003000285FD0606800285CD10120DBE7C6
:1023900000BF6068B0F5803F06D1E748006840F4B0
:1023A0008030E549086028E0606858B9E248006874
:1023B00020F48030E04908600846006820F480205E
:1023C00008601AE06068B0F5A02F0BD1DA48006809
:1023D00040F48020D84908600846006840F4803006
:1023E00008600AE0D448006820F48030D2490860D0
:1023F0000846006820F48020086000BF606888B14B
:10240000FFF7B8FD054606E0FFF7B4FD401B642862
:1024100001D9032098E7C848006800F4003000287C
:10242000F2D010E0FFF7A6FD054606E0FFF7A2FD9B
:10243000401B642801D9032086E7BF48006800F4E8
:1024400000300028F2D1207800F00200022857D195
:10245000B948406800F00C0050B1B748406800F03F
:102460000C00082818D1B448406800F4803098B9AE
:10247000B148006800F0020020B12069012801D0B5
:10248000012061E7AC48006820F0F800616940EA8B
:10249000C100A949086033E02069E8B10120A749DB
:1024A0000860FFF767FD054606E0FFF763FD401B88
:1024B000022801D9032047E79F48006800F0020086
:1024C0000028F2D09C48006820F0F800616940EADA
:1024D000C1009949086013E0002098490860FFF79F
:1024E00049FD054606E0FFF745FD401B022801D9DE
:1024F000032029E79048006800F002000028F2D18C
:10250000207800F0080008282DD1A069B8B101207A
:102510008B490860FFF72EFD054606E0FFF72AFD10
:10252000401B022801D903200EE78348406A00F0CF
:1025300002000028F2D0012000F00AFD13E0002084
:102540007F490860FFF716FD054606E0FFF712FD1C
:10255000401B022801D90320F6E67748406A00F0C4
:1025600002000028F2D1207800F00400042873D182
:1025700000277148C06900F0805070B900BF6E48F4
:10258000C06940F080506C49C8610846C06900F0DD
:102590008050009000BF00BF01276A48006800F427
:1025A0008070B0B96748006840F480706549086081
:1025B000FFF7E0FC054606E0FFF7DCFC401B642863
:1025C00001D90320C0E65F48006800F4807000284D
:1025D000F2D000BFE068012806D15748006A40F0F9
:1025E00001005549086227E0E06858B95248006A7E
:1025F00020F00100504908620846006A20F00400FB
:10260000086219E0E06805280BD14B48006A40F0E9
:102610000400494908620846006A40F00100086267
:102620000AE04548006A20F0010043490862084674
:10263000006A20F00400086200BFE068A0B1FFF764
:1026400099FC054609E0FFF795FC401B41F28831F3
:10265000884202D9032077E622E03748006A00F07A
:1026600002000028EFD012E0FFF784FC054608E0E6
:10267000FFF780FC401B41F28831884201D90320DA
:1026800062E62D48006A00F002000028F0D1012F18
:1026900005D12948C06920F080502749C86100BF92
:1026A000E069C8B32448406800F00C00082860D0F6
:1026B000E069022848D1002020490866FFF75AFC4B
:1026C000054606E0FFF756FC401B022801D903200F
:1026D0003AE61948006800F000700028F2D1206A3C
:1026E000B0F5803F07D11448406820F40030A1685D
:1026F000084311494860D4E9080108430E49496874
:1027000021F4741108430C49486001200B49086604
:10271000FFF730FC054607E03DE0FFF72BFC401BD0
:10272000022801D903200FE60348006800F000707A
:102730000028F2D02FE000000010024000004242CA
:102740008004424200700040002014490866FFF7F0
:1027500011FC054606E0FFF70DFC401B022801D9DD
:102760000320F1E50E48006800F000700028F2D167
:1027700011E0E069012800D1E6E50948466806F461
:102780008031206A814204D106F47011606A81426E
:1027900001D00120D8E50020D6E50000000042422B
:1027A00000100240042808D14FF0E021096941F0EF
:1027B00004014FF0E022116107E04FF0E0210969C8
:1027C00021F004014FF0E0221161704770B504461A
:1027D0002546681EB0F1807F01D301200FE0681EFE
:1027E0004FF0E02148610F214FF0FF3000F0C8FEAC
:1027F00000204FF0E021886107200861002070BDB3
:10280000704700002DE9F0470446206805682068FD
:10281000C668206847694FF00008C14605F00F08F8
:10282000B8F1000F0AD105F0200038B106F0200001
:1028300020B1204600F041FDBDE8F087B8F1000F5F
:1028400071D007F0010018B906F4907000286AD022
:1028500005F0010030B106F4807018B1E06B40F073
:102860000100E06305F0040030B107F0010018B189
:10287000E06B40F00200E06305F0020030B107F0C9
:10288000010018B1E06B40F00400E06305F00800BF
:1028900048B106F0200010B907F0010018B1E06B54
:1028A00040F00800E063E06B68B305F0200028B159
:1028B00006F0200010B1204600F0FFFC20684069BF
:1028C000C0F38019E06B00F0080010B9B9F1000FF7
:1028D00022D0204600F0D1FC2068406900F0400082
:1028E000B0B12068406920F0400021684861606B09
:1028F00050B11848616B4863606BFFF7AFF810B1D7
:10290000606B416B88470CE02046FFF779FF08E0D9
:102910002046FFF775FF04E02046FFF771FF002017
:10292000E06389E7FFE705F0800030B106F0800042
:1029300018B1204600F090FD7EE705F0400030B170
:1029400006F0400018B1204600F0A7FC74E700BF75
:1029500072E700006732000810B504460CB9012088
:1029600010BDA06900B100E000BF94F8390028B99B
:10297000002084F83800204600F028F8242084F84D
:1029800039002068C06820F400502168C8602046E3
:1029900000F0E4FC2068006920F4904021680861A0
:1029A0002068406920F02A00216848612068C068DA
:1029B00040F400502168C8600020E063202084F8C3
:1029C000390084F83A000020CAE7000010B586B04C
:1029D00004465449206888424BD100BF00BF52488A
:1029E000806940F00400504988610846806900F021
:1029F0000400019000BF00BF00BF00BF00BF084639
:102A0000806940F0040088610846806900F0040095
:102A1000019000BF00BF00BF00BF00BF0846806933
:102A200040F4804088610846806900F4804001904D
:102A300000BF00BF00BF4815029002200390012094
:102A400004900320059002A93848FFF7DBF84FF403
:102A5000806002900020039002A93448FFF7D2F86A
:102A60002520FFF7D4FA032211462520FFF7DFFACD
:102A700055E02F492068884251D100BF2A48C069DB
:102A800040F480202849C8610846C06900F48020CD
:102A9000019000BF00BF00BF00BF0846806940F042
:102AA000080088610846806900F00800019000BFB6
:102AB00000BF00BF00BF00BF0846806940F00800AB
:102AC00088610846806900F00800019000BF00BFDF
:102AD00000BF2720FFF79BFA032211462720FFF7AC
:102AE000A6FA4FF480600290022003900120049027
:102AF0000320059002A90F48FFF784F84FF4006007
:102B000002900020039002A90A48FFF77BF82720D3
:102B1000FFF77DFA032211462720FFF788FA06B057
:102B200010BD0000003801400010024000080140C4
:102B300000480040000C014010B5034693F83A00ED
:102B400020282FD101B10AB9012010BD00BF93F890
:102B50003800012801D10220F7E7012083F838006E
:102B600000BF99629A85DA850020D863222083F815
:102B70003A0000BF002083F8380000BF1868C06822
:102B800040F480701C68E0601868406940F0010003
:102B90001C6860611868C06840F020001C68E06034
:102BA0000020D2E70220D0E710B504463C49206857
:102BB00088423CD13B48008800F4004088BB39483B
:102BC000008800F4804070B1374800780A2803D0AC
:102BD00000203449088024E03248008840F4004056
:102BE000304908801DE0304800780D2806D12D4876
:102BF000008840F480402B49088012E02A48007881
:102C000028490988C1F30D01284A505425480088F5
:102C1000401C2449088008460088C72801DD0020A0
:102C20000880012220492248FFF786FF36E021492B
:102C30002068884232D120480088C7280ADA1F4815
:102C400001781D4802880088401C1B4B18801C48D6
:102C5000815402E0002018490880174800880228A3
:102C600017DB15480088801E1549085C4F2810D1D5
:102C700011480088401E085C4B280AD101201149E8
:102C800008700D4801880E48FDF722FD00200A4912
:102C90000880012209490C48FFF74EFF10BD0000D3
:102CA000003801403400002036000020D800002009
:102CB0006802002000480040380000203A00002050
:102CC000A00100202C000020A80200202DE9F84FD0
:102CD00004460E46174699464FF0000A94F839000C
:102CE00020285AD106B117B90120BDE8F88F00BFDE
:102CF00094F83800012801D10220F6E7012084F879
:102D0000380000BF0020E063212084F83900FFF77D
:102D100031F98246A784E784A068B0F5805F04D1CA
:102D2000206910B90025B04602E035464FF0000892
:102D300000BF002084F8380000BF1BE0534600228B
:102D400080212046CDF8009000F0B6FB08B10320AA
:102D5000CBE745B9B8F80000C0F308002168486027
:102D600008F1020803E02878216848606D1CE08CB7
:102D7000401EE084E08C0028E0D153460022402130
:102D80002046CDF8009000F097FB08B10320ACE797
:102D9000202084F839000020A7E70220A5E70000E2
:102DA00010B5044605492068884206D004492068C9
:102DB000884202D103A0FDF78DFA10BD0038014012
:102DC000004800405553415254332073656E6420CF
:102DD000636F6D706C6574650A00000000BFFEE7EC
:102DE00010B50446204600F019FC10BD1FB5069C26
:102DF0000022DDE9000100F097F9012C05D1002245
:102E0000DDE9020100F099F904E00122DDE90201A7
:102E100000F093F90220FFF7E3FF0122DDE9000152
:102E200000F082F90220FFF7DBFF0022DDE900015C
:102E300000F07AF91FBD1FB5019A91B201220098E6
:102E4000FFF792F8039A91B201220298FFF78CF8EB
:102E50000220FFF7C5FF039A91B200220298FFF704
:102E600083F80220FFF7BCFF019A91B2002200987C
:102E7000FFF77AF80220FFF7B3FF1FBD1FB5039AD3
:102E800091B200220298FFF76FF80220FFF7A8FF27
:102E9000019A91B201220098FFF766F80220FFF72D
:102EA0009FFF039A91B201220298FFF75DF802207A
:102EB000FFF796FF1FBD000010B58CB02C2210A1AB
:102EC00001A8FDF7CBFBFEF71FFD01A8FDF762FB94
:102ED00084B24FF6FF73224601A91448FFF7F6FEAD
:102EE00000BF124800680068C0F380100028F8D0C6
:102EF00001220F490D48FFF71FFE0CB010BD000066
:102F00006C6F7261206D6F64756C652072656D6F9A
:102F1000746520636F6D6D756E69636174696F6E42
:102F20002074657374210D0A00000000A8020020BF
:102F30003A00002010B5044614B9FFF7BDFF03E0C6
:102F4000012C01D100F0FCFB10BD00BFFEE7704773
:102F500008B508490968C9084FF47A72B1FBF2F163
:102F60004143009100BF00BF00994A1E0092002912
:102F7000F9D108BD240000207FB582B00A9D00264B
:102F800015B9304606B070BD8920009002A80FC860
:102F900000F063F802A80FC8FEF720FC08B9002073
:102FA000F0E70022DDE9020100F0BEF84FF47A609C
:102FB000FFF716FF002418E002A80FC800F01AF867
:102FC0002855052C0AD10020009002A80FC8FFF751
:102FD0000DFF02A80FC8FFF751FF05E00120009088
:102FE00002A80FC8FFF702FF641C062CE4DB0126D1
:102FF0003046C7E77FB500250022DDE9000100F07B
:1030000093F80220FFF7ECFE0122DDE9020100F057
:1030100094F80220FFF7E4FE002419E00122DDE924
:10302000000100F081F80220FFF7DAFEDDE902017D
:10303000FEF782FCC4F1070188402843C5B2002294
:10304000DDE9000100F070F80220FFF7C9FE641C02
:10305000082CE3DB284604B070BD7FB5089C002631
:103060000022DDE9000100F05FF80220FFF7B8FE62
:1030700000251FE0E6096006040E0EB1012000E005
:1030800000200246DDE9020100F057F80220FFF7B8
:10309000A7FE0122DDE9000100F046F80220FFF75B
:1030A0009FFE0022DDE9000100F03EF80220FFF75C
:1030B00097FE6D1C082DDDDB0122DDE9020100F029
:1030C0003CF80220FFF78CFE7FBD1FB582B00024C4
:1030D0008820009002A80FC8FFF7BFFF02A80FC802
:1030E000FEF77CFBD0B12C20009002A80FC8FFF7A0
:1030F000B4FF02A80FC8FEF771FB044674B10D209F
:10310000009002A80FC8FFF7A8FF02A80FC8FEF79B
:1031100065FB044614B1012006B010BD02A80FC81B
:10312000FFF7ACFE0020F7E737B51446019A91B2DD
:1031300022460098FEF718FF3EBD37B51446019AA7
:1031400091B222460098FEF70FFF3EBD00B585B054
:1031500000BF00BF1D48806940F008001B4988611E
:103160000846806900F00800009000BF00BF00BF63
:1031700000BF00BF0846806940F00800886108462B
:10318000806900F00800009000BF00BF00BF002071
:103190000190029003900490402001901120029031
:1031A000012003900220049001A90948FEF72AFD9E
:1031B0008020019001A90648FEF724FD05480CC8AF
:1031C000054803C8FFF75AFE05B000BD00100240D5
:1031D000000C014050000020480000201CB501F008
:1031E00087FA0D48012100238022CDE900100BA1B0
:1031F0000E4802F0FDF80E48022100238022CDE99E
:1032000000100CA1104802F0F3F81048006801F01B
:1032100039FC01F0BBFA1CBD04000020446174615C
:10322000436F6C6C6563745461736B003D180008E8
:1032300008000020436F6D6D756E69636174696F7E
:103240006E5461736B0000002B1800080000002012
:1032500010B5FEF795FE02F0FBF8012801D001F051
:10326000B1FE10BD704770B505466C6A0020E08560
:10327000E0842046FFF7C4FA70BD0168C96821F4F4
:1032800090710268D1600168496921F0010102680A
:103290005161202180F83A10704710B5044620682B
:1032A000C06820F040002168C860202084F8390000
:1032B0002046FFF775FD002010BD70B5044694F858
:1032C0003A00222847D1A068B0F5805F0CD1206970
:1032D00050B90025A66A20684068C0F30800308015
:1032E000A06A801CA06215E0A56A0026A068B0F55F
:1032F000805F03D0A06828B9206918B920684068A9
:10330000287004E02068406800F07F002870A06A00
:10331000401CA062E08D401E80B2E085C8B92068E4
:10332000C06820F020002168C8602068C06820F4D0
:1033300080702168C8602068406920F00100216821
:103340004861202084F83A002046FFF72DFC002039
:1033500070BD0020FCE70220FAE7000070B50446CB
:103360002168096921F44051E26811432268116122
:103370002269A1681143626941EA02052168C968AE
:1033800041F20C62914329432268D1602168496966
:1033900021F44071A2691143226851612D4A2168CC
:1033A000914202D1FEF772FF01E0FEF75FFF00EBF2
:1033B000C00101EB001162689200B1FBF2F100EB79
:1033C000C00202EB001263689B00B2FBF3F26423BD
:1033D000B2FBF3F202EBC20303EB0212A1EB820198
:1033E000322202EB01116422B1FBF2F101F0F00193
:1033F00000EBC00202EB001263689B00B2FBF3F229
:103400006423B2FBF3F201EB021200EBC00101EB0B
:10341000001163689B00B1FBF3F100EBC00303EB09
:1034200000136668B600B3FBF6F36426B3FBF6F34D
:1034300003EBC30606EB0313A1EB8301322303EB7B
:1034400001116423B1FBF3F101F00F011144226873
:10345000916070BD00380140014691F83900212883
:1034600028D18868B0F5805F0BD1086948B90A6A2D
:103470001088C0F308000B685860086A801C086256
:1034800005E00B6A581C086218780B685860C88CF5
:10349000401E80B2C88458B90868C06820F0800017
:1034A0000B68D8600868C06840F040000B68D860BE
:1034B000002070470220FCE72DE9F04104460D464C
:1034C00017469846069E21E0701CF8B12EB1FEF713
:1034D00051FDA0EB0800B04218D92068C06820F464
:1034E000D0702168C8602068406920F00100216820
:1034F0004861202084F8390084F83A0000BF002099
:1035000084F8380000BF0320BDE8F081206800681F
:103510002840A84201D1012000E00020B842D3D0C9
:103520000020F1E710B50248FFF76CF910BD00006C
:103530006802002010B50248FFF764F910BD0000D2
:10354000A802002000BFFEE7490050EAC12018BFD2
:1035500004204A0D18BF40F0010040F2FF72B2EBA8
:10356000515F08BF40F00200012808BF05207047E6
:1035700002480068C0F30220704700000CED00E034
:1035800010B5002804DB0A07130E054A135406E0A1
:103590000A07140E034A00F00F031B1FD45410BD7A
:1035A00000E400E018ED00E030380A2801D20120E4
:1035B00070470020704700BF7047000070B5044698
:1035C00000204FF0E0210861FFF7ECF8E11704EB71
:1035D0005171C9100B4A1160E11704EB5171CD1004
:1035E0004FF47A7045434FF0E020006940F002004C
:1035F0004FF0E021086108464561006940F0010094
:10360000086170BD2800002010B504464FF47A719F
:1036100004FB01F000F002F810BD000070B5034695
:1036200000224FF0E02675690D4E366803FB06F464
:103630004FF0E026B16910E04FF0E026B069884213
:103640000BD0884202D20E1A324402E02E1A0E44E7
:1036500032440146A24200D300E0EDE700BF70BD56
:103660002800002000BF054A126802F04002002A2C
:10367000F9D0C2B2014B1B1D1A60704700380140DF
:103680001CB5064800210B468022CDE9001004A19C
:10369000064801F0ADFE01F01DFB1CBD000000203E
:1036A00053746172745461736B000000DD31000863
:1036B00000B585B000BF00BF1E48806940F008001B
:1036C0001C4988610846806900F00800009000BF2E
:1036D00000BF00BF00BF00BF0846806940F0400047
:1036E00088610846806900F04000009000BF00BF7C
:1036F00000BF20200190012002900390032004903D
:1037000001A90D48FEF77EFA2020019001A90B487F
:10371000FEF778FA00BF012220210748FEF724FCBB
:1037200000BF00BF012220210448FEF71DFC00BF9E
:1037300005B000BD00100240000C0140001801401F
:1037400038B5FEF7CDF814A0006800906846FCF785
:1037500021FF85B24FF47A732A4669460F48FFF776
:10376000B5FA00BF0D4800680068C0F3801000285B
:10377000F8D0FEF7DBF8044634B109A0FCF7AAFD47
:103780000A2001F039F905E00AA0FCF7A3FD0A20A0
:1037900001F032F938BD000041540000A8020020B9
:1037A0004C6F526120636F6E6E65637465640D0AC1
:1037B000000000004C6F5261206E6F7420636F6ECA
:1037C0006E65637465640D0A0000000000B585B085
:1037D00000BF1948806940F0040017498861084615
:1037E000806900F00400009000BF00BF002001903D
:1037F0000290039004900120019002900390032016
:10380000049001A90D48FEF7FDF900BF0A48806940
:1038100040F04000084988610846806900F0400097
:10382000009000BF00BF2020019001A90448FEF7CE
:10383000E9F905B000BD0000001002400008014099
:103840000018014010B5FEF7A7FB4FF4E01000F0A0
:103850009DFE4820FFF7B2FEFFF72AFF4FF4E1304C
:1038600000F0C8FEFFF772FCFFF7B0FFFFF708FF9C
:10387000002010BD2DE9F04105460E462948076895
:1038800000202949096881F8590027480068001D6F
:1038900000F0E4FE50B92448006890F82C10012094
:1038A000884022490968814320480160681CD8B9D2
:1038B000D6B11F4948681C49096888601A4982685E
:1038C0000968CA6018490968091D8268516016496B
:1038D0000968091D8160164A134909684A61114641
:1038E0000968491C11601AE07C190F48006844609F
:1038F000BC4207D20C480168091D0E48006800F060
:10390000D1FE0CE008480168091D0B48006800F072
:10391000C9FE0A480068844201D208480460BDE834
:10392000F08100006C000020580000207000002092
:10393000F8050020600000205C00002088000020C6
:1039400010B5044600F0D4FE31480068401C3049F0
:1039500008603048006840B92E4804600846006896
:1039600001280DD100F01AFA0AE02B48006838B996
:1039700028480068C06AE16A884201D82548046086
:1039800026480068401C25490860084600686064B5
:1039900094F82C10012088402149096808432049E7
:1039A0000860E16A01EB81011E4A02EB810148686F
:1039B000A0608268E260211D826851608160E16AD6
:1039C00001EB8101174A02EB81026261E16A01EBBE
:1039D0008101144A52F82110491CE26A02EB82026A
:1039E000104B43F8221000F0D1FE0B48006868B17C
:1039F00008480068C06AE16A884207D24FF08050E8
:103A000009490860BFF34F8FBFF36F8F10BD0000EF
:103A1000680000205800002074000020840000206E
:103A2000700000202803002004ED00E010B500F035
:103A30005FFE10480068D0B90F4800F023FE0F4821
:103A400000F020FE0C480E4908600C480D49086043
:103A500000221021052001F0CFFA0649086008462F
:103A6000006820B108A10348006800F055FF00F08D
:103A70008DFE10BDA00000200C06002020060020B6
:103A8000980000209C000020546D7251000000003E
:103A900010B516E000F02CFE0C48C068C468201D6C
:103AA00000F0DCFD0A480068401E0949086009482A
:103AB0000068401E0749086000F068FE204600F0DC
:103AC0005FF8044800680028E4D110BDE405002038
:103AD000680000206400002070B504460D46206C8C
:103AE00070B1216CE0680144E160D4E902108842C1
:103AF00001D32168E1602846226CE168FCF769FD8A
:103B000070BD2DE9F04104460F4615464FF0000800
:103B1000A66B206C48B9206800282CD1A06801F061
:103B2000A5FD80460020A06025E07DB93946226CC5
:103B30006068FCF74EFD216C606808446060D4E961
:103B40000101884217D32068606014E03946226C76
:103B5000E068FCF73EFD216CE068411AE1602168F5
:103B6000E068884203D2216CA068411AE160022D0E
:103B700001D106B1761E701CA0634046BDE8F081FD
:103B800010B50446206B00F043FE204600F040FED6
:103B900010BD00000146084A126812680AB90122E5
:103BA00000E000220A600A6822B9034A1268D2685B
:103BB000106800E0002070479800002030B54FF4F6
:103BC0002053174800F007042CB1C01D20F0070057
:103BD000134C041B1B1B0246124C22600024114D87
:103BE0006C60D018083820F007000F4C20600024CB
:103BF0000D4D2D686C600C4D2D682C601146441ADB
:103C00004C60094C24680C60084D4C682C60084DD1
:103C10004C682C604FF00044064D2C6030BD000015
:103C200034060020B8000020C0000020C80000209A
:103C3000C4000020D400002000BFFFF729FF064881
:103C400000680128F9D94FF0805004490860BFF39B
:103C50004F8FBFF36F8FF0E72803002004ED00E0E3
:103C60002DE9F04106460D4617469846069C0DB9CB
:103C7000246000E02760E66325640121204601F00E
:103C800007FA84F850800020A064BDE8F0810000AD
:103C90002DE9F05F82460F4690469B460A9E0C9C9B
:103CA0004FEA8801A522206BFCF70AFDA8F101006C
:103CB000216B01EB800929F0070909F0070008B919
:103CC000012000E0002028B94FF4587224A12FA051
:103CD000FCF700FB87B1002507E0795D04F13400B3
:103CE0004155785D00B902E06D1C102DF5D300BF81
:103CF00000214320015502E0002084F83400202EEA
:103D000001D2012000E0002028B940F2973214A12E
:103D10001EA0FCF7DFFA202E00D31F26E662E66421
:103D200000202065201D00F0BAFC04F1180000F00E
:103D3000B6FC2461C6F12000A061646200206065C9
:103D400084F8580084F859005A465146484600F015
:103D50000BFC20600B9808B10B980460BDE8F09F45
:103D60002E2E5C2E2E5C4D6964646C6577617265E5
:103D7000735C4672656552544F535C536F75726342
:103D8000655C7461736B732E630000004572726F23
:103D9000723A2025732C2025640D0A0010B50024EA
:103DA00007E004EB84010F4A02EB810000F06AFC9B
:103DB000641C202CF5D30C4800F064FC0B4800F088
:103DC00061FC0B4800F05EFC0A4800F05BFC0A480E
:103DD00000F058FC04480949086004480849086094
:103DE00010BD000028030020A8050020BC0500200D
:103DF000D0050020E4050020F80500205C0000202C
:103E00006000002010B50146164800E00068036815
:103E10008B42FBD30246436813448B4204D1436870
:103E20004C682344436001460A464B6813440468C7
:103E3000A34211D10C4C03682468A34208D04B68FC
:103E40000468646823444B6003681B680B6005E0EA
:103E5000054B1B680B6001E003680B60884200D0D3
:103E6000016010BDB8000020C00000202DE9F04125
:103E700004460D4616461F464FF000086560246153
:103E8000B5420CD8F01BA169884202D34FF001085B
:103E900011E0211D0948006800F004FC0BE0BE425F
:103EA00004D2BD4202D34FF0010804E0211D0448B2
:103EB000006800F0F7FB4046BDE8F0819C00002060
:103EC0009800002070B5054600F012FCA86B08B9F8
:103ED000012400E0002400F059FC204670BD0000E1
:103EE000F1B50098846C00262CB940F6D53220A19B
:103EF0002AA0FCF7EFF9A06BE16B884201D2012008
:103F000000E0002028B940F6D63219A123A0FCF722
:103F1000E1F9A06BE16B884227D294F94550002269
:103F200069462046FFF7EDFD0646681C60B9606AE9
:103F300008B9012000E00020B0B904F1240001F02C
:103F400021FC88B101260FE07F2D01D0012000E087
:103F5000002028B940F6F63205A110A0FCF7BAF906
:103F6000681C40B284F8450000BF3046F8BD000030
:103F70002E2E5C2E2E5C4D6964646C6577617265D3
:103F8000735C4672656552544F535C536F75726330
:103F9000655C71756575652E630000004572726F12
:103FA000723A2025732C2025640D0A0070B5054651
:103FB0000E460E480068C068C468201D00F04EFB25
:103FC00094F8280000F0040028B132462946204623
:103FD00000F002F905E094F8280000F0FE0084F8F3
:103FE00028002046216A884770BD00009800002004
:103FF00070B586B08AE0029800280CDA03AE2EB9BC
:1040000040F2063247A152A0FCF764F9D6E900203D
:10401000B168904700BF0298002877DB049C606974
:1040200008B9012000E0002010B9201D00F016FBA7
:1040300001A800F0FDF8054602980A2864D2DFE8DE
:1040400000F06305072E365306082F3700BF00BF68
:1040500000BF94F8280040F0010084F8280003987D
:10406000A269811803462A462046FFF7FFFEA8B141
:1040700094F8280000F0040038B10398A269811870
:104080002A46204600F0A8F805E094F8280000F041
:10409000FE0084F828002046216A884735E000BFEA
:1040A00094F8280000F0FE0084F828002DE000BFFE
:1040B00094F8280040F0010084F828000398A061DB
:1040C000A06908B1012000E0002028B940F259326F
:1040D00014A11FA0FCF7FEF8A06941192B462A463F
:1040E0002046FFF7C3FE10E094F8280000F002001D
:1040F00018B9204600F08CFB05E094F8280000F089
:10410000FE0084F8280000E000BF00BF002202A9E2
:104110001348006801F03EF800287FF46CAF06B049
:1041200070BD00002E2E5C2E2E5C4D6964646C65A3
:1041300077617265735C4672656552544F535C5388
:104140006F757263655C74696D6572732E630000D0
:104150004572726F723A2025732C2025640D0A0077
:10416000A0000020F8B505460C4600F019FE684690
:1041700000F05EF80646009820BB44B9B54206D868
:1041800001F0AAFB31462846FFF710FF1CE03CB1C6
:104190000E480068006808B9012000E000200446CD
:1041A000A91B22460A48006800F000FC01F094FBBD
:1041B00050B94FF0805007490860BFF34F8FBFF3ED
:1041C0006F8F01E001F088FBF8BD00009C0000202B
:1041D000A000002004ED00E070B504460D46164630
:1041E00004E0A06905442046216A8847A069411976
:1041F0002B4632462046FFF739FE0028F1D170BD2C
:1042000009480068006808B9012000E0002020B1DA
:104210004FF0FF300549086005E003480068C068BA
:1042200000680249086070475C0000208800002098
:1042300070B5044601F01CF9054607480068854240
:1042400004D200F00BF80120206001E00020206083
:1042500001480560284670BDA800002070B508E040
:104260000D480068C06804684FF0FF312046FFF732
:104270009DFE09480068006808B9012000E00020A0
:104280000028EDD004480568044800680249086029
:104290000248056070BD0000980000209C000020CE
:1042A0000B480068401C08B9012000E0002020B93C
:1042B000CE2208A117A0FCF70DF800BF502080F314
:1042C0001188BFF34F8FBFF36F8F00BF00BFFEE7B2
:1042D000AC0000202E2E5C2E2E5C4D6964646C6553
:1042E00077617265735C4672656552544F535C53D7
:1042F0006F757263655C706F727461626C655C523D
:104300005644535C41524D5F434D335C706F727441
:104310002E6300004572726F723A2025732C20259F
:10432000640D0A0008B500BF6846FFF733FC044679
:1043300020460099FFF716FFFFF75AFEF4E770B525
:10434000044600F0D5F994F9455019E0A06C30B15D
:104350002046FFF7C5FD88B100F036FC0EE0606A2C
:1043600008B9012000E0002038B904F1240001F070
:1043700009FA18B100F028FC00E003E0681E45B21D
:10438000002DE3DC00BFFF2084F8450000F0FEF9BB
:1043900000F0AEF994F9445010E0206908B901200A
:1043A00000E0002048B904F1100001F0EBF908B179
:1043B00000F00AFC681E45B200E001E0002DECDCD4
:1043C00000BFFF2084F8440000F0E0F970BD000059
:1043D0002DE9F04104464FF0000800F0E1FC4948A7
:1043E000006808B9FFF7EAFB47480068204000284A
:1043F00075D1002C23D004F10800A0421FD9083445
:1044000004F0070000281BD004F00700C0F10800EA
:104410002044A04211D904F00700C0F10800044470
:1044200004F0070008B9012000E0002040B99C22F8
:1044300036A145A0FBF74EFF02E0002400E0002477
:10444000002C4CD044480068844248D8434E304643
:10445000056801E02E462D686868A04202D22868EF
:104460000028F7D127480068854238D0306800F12D
:104470000808286830606868001B102813D92F19B5
:1044800007F0070008B9012000E0002020B9CF2282
:104490001EA12DA0FBF71EFF6868001B78606C60F2
:1044A0003846FFF7AFFC2C4968680968081A2A49A2
:1044B0000860084600682A490968884203D22648ED
:1044C00000682749086010496868096808436860FF
:1044D0000020286023480068401C2249086001F041
:1044E000FBF908F0070008B9012000E0002028B916
:1044F0004FF4887205A114A0FBF7ECFE4046BDE81E
:10450000F0810000C0000020D40000202E2E5C2E80
:104510002E5C4D6964646C6577617265735C46728C
:10452000656552544F535C536F757263655C706F71
:10453000727461626C655C4D656D4D616E675C683F
:104540006561705F342E63004572726F723A202588
:10455000732C2025640D0A00C4000020B800002040
:10456000C8000020CC000020001F4FF080730360C3
:10457000001F21F001030360001F034B0360143888
:104580000260203870470000A142000830B58FB0AB
:1045900005460124282105A8FCF79AF8142168464D
:1045A000FCF796F801200590000406900020079083
:1045B00002200C90C1030D910E9505A8FDF7C0FED9
:1045C00004460CB100BFFEE70F20009002200190CE
:1045D000002002904FF4806003900020049002219C
:1045E0006846FDF777FD04460CB100BFFEE70FB04B
:1045F00030BD000010B50446124813490860084653
:10460000446000218160C160016181610C214161D0
:10461000FEF7A2F901220D490B48FEF78DFA0C486E
:104620000C4908600846446000218160C1600C218B
:104630004161FEF791F9012207490648FEF77CFA2D
:1046400010BD000000380140680200203600002044
:1046500000480040A80200203A00002001460A69F4
:10466000D1E901309860D1E901035860506888426F
:1046700001D188685060002008611068401E1060F9
:104680001068704700F1080141604FF0FF31816010
:1046900000F10801C1600161002101607047002143
:1046A0000161704710B502460B685C1C0CB91069BB
:1046B00007E002F1080000E04068446824689C427A
:1046C000FAD944684C604C68A160886041600A6116
:1046D0001468641C146010BD42684A6093688B6063
:1046E000936859609160086103685B1C03607047C0
:1046F00010B500BF502080F31188BFF34F8FBFF378
:104700006F8F00BF0B480068401C0A4908600846CC
:10471000006801280DD108480068C0B208B901201E
:1047200000E0002028B940F2731204A113A0FBF7A7
:10473000D1FD10BDAC00002004ED00E02E2E5C2E5B
:104740002E5C4D6964646C6577617265735C46725A
:10475000656552544F535C536F757263655C706F3F
:10476000727461626C655C525644535C41524D5F99
:10477000434D335C706F72742E6300004572726F2C
:10478000723A2025732C2025640D0A0010B50B48C1
:10479000006828B94FF4BD7209A119A0FBF79AFD72
:1047A00006480068401E054908600846006820B9B0
:1047B000002080F3118800BF00BF10BDAC000020B6
:1047C0002E2E5C2E2E5C4D6964646C65776172657B
:1047D000735C4672656552544F535C536F757263D8
:1047E000655C706F727461626C655C525644535CB8
:1047F00041524D5F434D335C706F72742E63000005
:104800004572726F723A2025732C2025640D0A00C0
:1048100070B506463546002E3AD0083D2C461D4957
:1048200060680968084008B1012000E0002028B94C
:104830004FF4927218A127A0FBF74CFD206808B92D
:10484000012000E0002028B940F2251212A121A089
:10485000FBF740FD0F49606809680840C0B1206857
:10486000B0B90C49606809688843606000F098FA44
:104870001C496068096808441A4908602046FFF727
:10488000C1FA19480068401C1749086001F024F873
:1048900070BD0000D40000202E2E5C2E2E5C4D69D1
:1048A00064646C6577617265735C467265655254C9
:1048B0004F535C536F757263655C706F72746162A5
:1048C0006C655C4D656D4D616E675C686561705FC0
:1048D000342E63004572726F723A2025732C2025A6
:1048E000640D0A00C4000020D000002000204FF01A
:1048F000E0210861886107480068C0084FF47A71B8
:10490000B0FBF1F0401E4FF0E02148610320086148
:1049100070470000240000202DE9F04106460F46B4
:104920002EB940F6C82211A11BA0FBF7D3FC00252D
:10493000BFB1002412E01C4800EBC4004068B04244
:1049400003D1194800EBC4050AE035B9164850F800
:10495000340010B9144800EBC405641C082CEAD3D9
:1049600000BF0DB12F606E60BDE8F0812E2E5C2E71
:104970002E5C4D6964646C6577617265735C467228
:10498000656552544F535C536F757263655C717506
:104990006575652E630000004572726F723A2025BE
:1049A000732C2025640D0A00E80200202DE9F04157
:1049B00005460E4617462C46FFF79AFE94F944002A
:1049C000401C10B9002084F8440094F94500401CB4
:1049D00010B9002084F84500FFF7D8FEA06B28B975
:1049E0003A46314604F1240000F02AF92046FFF748
:1049F000A6FCBDE8F081000070B504460025ACB10E
:104A00000F48006808B9012000E0002028B940F2F2
:104A100049520CA116A0FBF75DFC00F0C1F9002182
:104A20002046FEF727FF00F057FF05463DB94FF03F
:104A3000805013490860BFF34F8FBFF36F8F70BD75
:104A4000940000202E2E5C2E2E5C4D6964646C65F3
:104A500077617265735C4672656552544F535C535F
:104A60006F757263655C7461736B732E6300000015
:104A70004572726F723A2025732C2025640D0A004E
:104A800004ED00E070B50546FFF732FE15B92F487A
:104A9000006800E028460446201DFFF7DFFD78B9D6
:104AA000E06A00EB80002A4951F8200040B994F8F0
:104AB0002C1001208840274909688143254801605E
:104AC000A06A18B104F11800FFF7C8FD2248006879
:104AD000401C214908601D480068844209D1211DFD
:104AE0001E48FFF7F9FD1E480068401C1C4908607D
:104AF00006E01C480068401E1A490860FFF780FB6A
:104B0000FFF744FE11480068844202D02046FFF7B8
:104B100037F815480068C0B10C480068844214D1C9
:104B20001248006808B9012000E0002028B940F2CE
:104B3000DC420FA119A0FBF7CDFB4FF080501B49C1
:104B40000860BFF34F8FBFF36F8F70BD5800002018
:104B5000280300207000002084000020E4050020CD
:104B600064000020680000207400002094000020F1
:104B70002E2E5C2E2E5C4D6964646C6577617265C7
:104B8000735C4672656552544F535C536F75726324
:104B9000655C7461736B732E630000004572726F05
:104BA000723A2025732C2025640D0A0004ED00E0E4
:104BB00003490968016003490968416070470000C2
:104BC000800000206C00002001200149086070472F
:104BD0007C00002070B504460D462CB940F61C42FE
:104BE00007A112A0FBF776FB144801681831204694
:104BF000FFF758FD01212846FEF73CFE70BD00007E
:104C00002E2E5C2E2E5C4D6964646C657761726536
:104C1000735C4672656552544F535C536F75726393
:104C2000655C7461736B732E630000004572726F74
:104C3000723A2025732C2025640D0A0058000020AC
:104C400070B504460E4615462CB940F6524211A1E5
:104C50001BA0FBF73FFB60681D490968C8611C4940
:104C6000826809680A621A490968183182685160C5
:104C70001749096818318160154909688C622168F3
:104C8000491C21600DB14FF0FF3629463046FEF732
:104C9000F1FD70BD2E2E5C2E2E5C4D6964646C653A
:104CA00077617265735C4672656552544F535C530D
:104CB0006F757263655C7461736B732E63000000C3
:104CC0004572726F723A2025732C2025640D0A00FC
:104CD000580000201CB51B4800210B468022CDE95E
:104CE000001019A11A4800F083FB0446012C02D1E0
:104CF00000F0C6FE0446012C15D100BF502080F301
:104D00001188BFF34F8FBFF36F8F00BF4FF0FF309D
:104D10001049086001201049086000200F49086010
:104D200000F0A6F80BE0601C08B1012000E00020B4
:104D300028B94FF404620AA114A0FBF7CBFA174874
:104D400000681CBD8C00002049444C450000000058
:104D5000393C000888000020740000206C0000200E
:104D60002E2E5C2E2E5C4D6964646C6577617265D5
:104D7000735C4672656552544F535C536F75726332
:104D8000655C7461736B732E630000004572726F13
:104D9000723A2025732C2025640D0A009000002013
:104DA00002480068401C01490860704794000020D8
:104DB00010B51B48006818B101201A4908602DE0A1
:104DC00000201849086018480068B0FA80F0C0F167
:104DD0001F0404EB8400154951F8200008B101209C
:104DE00000E0002028B940F6024211A11BA0FBF709
:104DF00071FA04EB84010D4A02EB810041684968B5
:104E0000416000F1080142688A4202D14168496864
:104E100041604168C968154A116000BF10BD0000BB
:104E2000940000207C000020700000202803002057
:104E30002E2E5C2E2E5C4D6964646C657761726504
:104E4000735C4672656552544F535C536F75726361
:104E5000655C7461736B732E630000004572726F42
:104E6000723A2025732C2025640D0A00580000207A
:104E70001CB53B4C204600780190FF20214608706D
:104E80000846007800909DF8000000F0F0009DF8C2
:104E90000010884201D1012000E0002028B940F232
:104EA0001F1230A13FA0FBF715FA9DF8000000F09B
:104EB00050004049087007203F49086009E03E481B
:104EC0000068401E3C4908609DF800004006000E46
:104ED00000909DF8000000F080008028EFD0364858
:104EE0000068C0F10700042801D1012000E0002083
:104EF00028B940F233121BA12AA0FBF7EBF92E4888
:104F00000068C0F10700042801D1012000E0002062
:104F100028B94FF49E7213A122A0FBF7DBF92648B3
:104F200000680002244908600846008800F4E06038
:104F300008600B49019808702048006840F4700030
:104F40001E4908600846006840F070400860FFF79E
:104F5000CDFC00201A490860FBF760F900201CBD59
:104F600000E400E02E2E5C2E2E5C4D6964646C65BE
:104F700077617265735C4672656552544F535C533A
:104F80006F757263655C706F727461626C655C52A0
:104F90005644535C41524D5F434D335C706F7274A5
:104FA0002E6300004572726F723A2025732C202503
:104FB000640D0A00B0000020B400002020ED00E0E5
:104FC000AC00002010B500BF502080F31188BFF363
:104FD0004F8FBFF36F8F00BF00F050FA18B14FF042
:104FE00080500449086000BF002080F3118800BF92
:104FF00010BD000004ED00E02DE9F84305460E4623
:1050000017460024E5B1601EB0FBF5F0B04217D39F
:1050100005FB06F010F1550F12D805FB06F909F152
:105020005400FFF7D5F904468CB1A04608F15408A6
:105030003B464246314628460094FEF711FE06E004
:105040002CB94FF4E37203A10DA0FBF743F92046FE
:10505000BDE8F8832E2E5C2E2E5C4D6964646C6571
:1050600077617265735C4672656552544F535C5349
:105070006F757263655C71756575652E6300000000
:105080004572726F723A2025732C2025640D0A0038
:105090002DE9F04105460E4601272C462CB94FF468
:1050A00088722CA136A0FBF715F9002C42D0E06BDA
:1050B00000283FD04FF0FF31E06BB1FBF0F0216CE6
:1050C000884237D3FFF714FBD4E90F12206801FBA5
:1050D0000200A0600020A06320686060E06B401EBA
:1050E000226C216800FB0211E160FF2084F844007B
:1050F00084F845009EB9206908B9012000E000202D
:10510000A8B904F1100000F03DFB80B14FF08050D1
:105110001F490860BFF34F8FBFF36F8F07E004F1A3
:105120001000FFF7AFFA04F12400FFF7ABFAFFF726
:105130002DFB00E000270FB1012000E0002028B97E
:1051400040F2451203A10EA0FBF7C4F83846BDE8B3
:10515000F08100002E2E5C2E2E5C4D6964646C651F
:1051600077617265735C4672656552544F535C5348
:105170006F757263655C71756575652E63000000FF
:105180004572726F723A2025732C2025640D0A0037
:1051900004ED00E02DE9F74183B005460E464FF0DF
:1051A00000082C462CB940F251524CA156A0FBF7F6
:1051B00091F80EB9206C08B9012000E0002028B950
:1051C00040F2555245A150A0FBF784F800F040F999
:1051D00008B9059808B9012000E0002028B940F27C
:1051E0005A523EA148A0FBF775F800BFFFF780FABE
:1051F000A76BF7B131462046FEF76EFC781EA06320
:10520000206908B9012000E0002060B904F1100015
:1052100000F0B8FA38B14FF080503F490860BFF352
:105220004F8FBFF36F8FFFF7B1FA012006B0BDE8D3
:10523000F081059818B9FFF7A9FA0020F6E7B8F150
:10524000000F04D101A8FFF7B3FC4FF00108FFF7EE
:105250009DFAFFF7A5FDFFF74BFA94F94400401CB7
:1052600010B9002084F8440094F94500401C10B99E
:10527000002084F84500FFF789FA05A901A800F08D
:105280004DF8F0B92046FEF71DFEA0B104F1240050
:105290000599FFF79FFC2046FFF751F800F01CFB33
:1052A0000028A3D14FF080501B490860BFF34F8FF7
:1052B000BFF36F8F9AE72046FFF741F800F00CFB31
:1052C00094E72046FFF73BF800F006FB2046FEF788
:1052D000F9FD00288AD00020A8E700002E2E5C2EC1
:1052E0002E5C4D6964646C6577617265735C4672AF
:1052F000656552544F535C536F757263655C71758D
:105300006575652E630000004572726F723A202544
:10531000732C2025640D0A0004ED00E070B50646EC
:105320000C462EB940F6FD421FA12AA0FAF7D2FF83
:105330002CB940F6FE421CA126A0FAF7CBFFFFF7DE
:10534000D7F9284802687068131A2748006890F84F
:10535000590030B100202449096881F8590001251D
:105360001EE02068401C08B9002519E01F4930687C
:105370000968884206D07068904203D80125002051
:1053800020600DE02068984207D92068C01A20608C
:105390003046FFF70DFC002502E0002020600125CB
:1053A000FFF7F4F9284670BD2E2E5C2E2E5C4D6959
:1053B00064646C6577617265735C467265655254AE
:1053C0004F535C536F757263655C7461736B732EBE
:1053D000630000004572726F723A2025732C2025FD
:1053E000640D0A006C00002058000020800000209E
:1053F0002DE9FF4F85B0804689461746DDE912AB9F
:10540000B800FEF7E5FF064656B15C20FEF7E0FF68
:1054100004460CB1266304E03046FFF7F9F900E0DA
:1054200000247CB10020CDE900ABCDE902403A4632
:1054300049464046089BFEF72BFC2046FEF780FAC3
:10544000012501E04FF0FF35284609B0BDE8F08F97
:105450000549096809B9012005E00449096809B945
:10546000022000E00020704774000020940000201B
:1054700001490868704700006C0000202DE9F041E8
:105480004FF000085F48006800287DD15E48006842
:10549000451C5D480560002D1DD15C480068006812
:1054A00008B9012000E0002028B940F6C72258A121
:1054B00062A0FAF70FFF554807686448006853492F
:1054C00008606248076062480068401C60490860E4
:1054D000FEF796FE00BF5F480068854277D300BFA5
:1054E0004A480068006808B9012000E0002020B1A7
:1054F0004FF0FF305749086068E044480068C068D2
:10550000C4686668B54202D2524806605EE06069CF
:10551000D4E902128A60D4E902214A60211D42685E
:105520008A4201D1E1684160002262610168491E3E
:105530000160A06A98B1A06AD4E907128A60D4E930
:1055400007214A6004F1180142688A4201D1216AA8
:1055500041600022A2620168491E016000BF94F808
:105560002C10012088403C49096808433A490860EA
:10557000E16A01EB8101394A02EB81014868A060D0
:105580008268E260211D00E033E082685160816042
:10559000E16A01EB8101314A02EB81026261E16A59
:1055A00001EB81012D4A52F82110491CE26A02EBFD
:1055B00082022A4B43F822102949E06A0968C96A25
:1055C00088428DD34FF001088AE700E000BF2448ED
:1055D0000068C06A00EB8000204951F820000128D3
:1055E00001D94FF001081F48006808B14FF00108C9
:1055F00004E01D480068401C1B4908604046BDE8A7
:10560000F0810000940000206C0000205C0000206D
:105610002E2E5C2E2E5C4D6964646C65776172651C
:10562000735C4672656552544F535C536F75726379
:10563000655C7461736B732E630000004572726F5A
:10564000723A2025732C2025640D0A00600000208A
:105650008000002088000020700000202803002027
:10566000580000207C0000207800002070B505461E
:105670002C460026002D5ED030480068844201D1BF
:10568000012000E0002028B941F24F022CA137A0F0
:10569000FAF720FE206D28B941F2500228A133A06C
:1056A000FAF718FE206D401E2065E16CE06A884222
:1056B00041D0206D00283ED1201DFEF7CFFF40B91C
:1056C00094F82C10012088402C49096881432B480C
:1056D0000160E06CE062E06AC0F12000A06194F833
:1056E0002C10012088402549096808432349086097
:1056F000E16A01EB8101224A02EB81014868A06066
:105700008268E260211D826851608160E16A01EB7C
:1057100081011B4A02EB81026261E16A01EB8101B6
:10572000174A52F82110491CE26A02EB8202144B1C
:1057300043F822100126304670BD000058000020BA
:105740002E2E5C2E2E5C4D6964646C6577617265EB
:10575000735C4672656552544F535C536F75726348
:10576000655C7461736B732E630000004572726F29
:10577000723A2025732C2025640D0A007000002049
:105780002803002070B50646F068C4682CB940F6BE
:1057900082423CA146A0FAF79DFDA06AD4E9071217
:1057A0008A60D4E907214A6004F1180142688A42FC
:1057B00001D1216A41600022A2620168491E016094
:1057C0003F48006800283DD16069D4E902128A6030
:1057D000D4E902214A60211D42688A4201D1E16870
:1057E0004160002262610168491E016094F82C103A
:1057F0000120884033490968084332490860E16A5A
:1058000001EB8101304A02EB81014868A0608268A7
:10581000E260211D826851608160E16A01EB8101D3
:10582000294A02EB81026261E16A01EB8101264AA9
:1058300052F82110491CE26A02EB8202224B43F823
:10584000221010E021494868E0618268226204F178
:1058500018018268516081601C4AA2621146096881
:10586000491C116000BF1A49E06A0968C96A884288
:1058700004D9012501201749086000E000252846C9
:1058800070BD00002E2E5C2E2E5C4D6964646C652C
:1058900077617265735C4672656552544F535C5311
:1058A0006F757263655C7461736B732E63000000C7
:1058B0004572726F723A2025732C2025640D0A0000
:1058C000940000207000002028030020D005002054
:1058D000580000207C00002070B5002400265048AD
:1058E000006828B940F6B3024EA159A0FAF7F2FCBD
:1058F000FEF7FEFE4A480068401E49490860084617
:10590000006800287ED15648006800287AD05BE005
:105910005448C068C468A06AD4E907128A60D4E910
:1059200007214A6004F1180142688A4201D1216AC4
:1059300041600022A2620168491E01606069D4E9E9
:1059400002128A60D4E902214A60211D42688A421B
:1059500001D1E1684160002262610168491E016075
:1059600094F82C10012088403F49096808433E49BB
:105970000860E16A01EB81013C4A02EB8101486861
:10598000A0608268E260211D826851608160E16AE6
:1059900001EB8101354A02EB81026261E16A01EBB0
:1059A0008101324A52F82110491CE26A02EB82025C
:1059B0002E4B43F822102E49E06A0968C96A8842D2
:1059C00002D301202B4908602648006808B901204D
:1059D00000E0002000289BD00CB1FEF711FC264807
:1059E000056865B100BFFFF749FD10B101202149ED
:1059F00008606D1E002DF6D100201F4908601D486B
:105A0000006800E008E038B1012630071B49086053
:105A1000BFF34F8FBFF36F8FFEF7B8FE304670BDF8
:105A2000940000202E2E5C2E2E5C4D6964646C6503
:105A300077617265735C4672656552544F535C536F
:105A40006F757263655C7461736B732E6300000025
:105A50004572726F723A2025732C2025640D0A005E
:105A600068000020D00500207000002028030020DE
:105A7000580000207C0000207800002004ED00E0A9
:105A80001CB50024FDF7D2FF0B48006858B10B4845
:105A90001F2100234FF48072CDE9001008A10A48AD
:105AA000FFF7A6FC04462CB940F2191207A112A078
:105AB000FAF710FC20461CBDA0000020A400002026
:105AC000546D722053766300254300082E2E5C2E01
:105AD0002E5C4D6964646C6577617265735C4672B7
